:020000040800F2
:1000000000000C20F9050008651400086D140008B4
:10001000751400087D1400088514000849060008BE
:100020000000000000000000000000008D14000827
:100030009B14000800000000A9140008B714000871
:100040004906000849060008490600084906000854
:100050004906000849060008490600084906000844
:10006000490600084906000849060008C3140008AC
:10007000D1140008DF140008ED140008FB14000878
:10008000091500081715000849060008251500087D
:100090004906000849060008351500084906000809
:1000A00045150008490600086115000849060008C2
:1000B00049060008711500084906000849060008AD
:1000C00049060008490600084906000849060008D4
:1000D00049060008490600084906000849060008C4
:1000E00049060008490600084906000849060008B4
:1000F00049060008490600084906000849060008A4
:100100004906000849060008490600084906000893
:100110004906000849060008490600084906000883
:100120004906000849060008490600084906000873
:100130004906000849060008490600084906000863
:100140004906000849060008490600084906000853
:100150004906000849060008490600084906000843
:100160004906000849060008490600084906000833
:100170004906000849060008490600084906000823
:100180004906000849060008490600084906000813
:100190004906000849060008490600084906000803
:1001A00049060008490600084906000849060008F3
:1001B00049060008490600084906000849060008E3
:1001C00049060008490600084906000849060008D3
:1001D00049060008490600084906000849060008C3
:1001E00049060008490600084906000849060008B3
:1001F00049060008490600084906000849060008A3
:100200008515000849060008490600084906000847
:100210004906000849060008490600084906000882
:100220004906000849060008490600084906000872
:08023000490600084906000818
:1002380010B5054C237833B9044B13B10448AFF318
:1002480000800123237010BD800000200000000002
:10025800A09E000808B5034B1BB103490348AFF340
:10026800008008BD0000000084000020A09E000857
:1002780053B94AB9002908BF00281CBF4FF0FF3105
:100288004FF0FF3000F0B2B9ADF1080C6DE904CEC3
:1002980000F006F8DDF804E0DDE9022304B0704759
:1002A8002DE9F04F8C46099E04460F46002B48D195
:1002B8008A4215465ED9B2FA82F33BB1C3F12002F5
:1002C8009F409D409C4020FA02F217434FEA154E8A
:1002D8001FFA85FC220CB7FBFEF10EFB117701FB20
:1002E8000CF042EA0742904207D9AA1801F1FF37F9
:1002F80002D2904200F258813946121AA4B2B2FBD7
:10030800FEF00EFB102200FB0CFC44EA0244A4455C
:100318000BD92C1900F1FF322CBF01270027A44567
:1003280002D9002F00F04381104640EA0140A4EBB7
:100338000C0400211EB1DC400023C6E90043BDE8DF
:10034800F08F8B4206D90EB1C6E90001002108469C
:10035800BDE8F08FB3FA83F1002951D16345C0F0AD
:100368001681824240F213810846002EE7D0C6E982
:100378000047E4E7002A00F0AF80B2FA82F3002BCE
:1003880040F0C2808A1A4FEA154EAFB20121200C04
:10039800B2FBFEFC0EFB1C2240EA024207FB0CF0FB
:1003A80090420ED9AA180CF1FF382CBF4FF0010962
:1003B8004FF00009904203D9B9F1000F00F0F08026
:1003C800C446121AA4B2B2FBFEF00EFB102200FBC8
:1003D80007F744EA0244A7420ED92C1900F1FF326C
:1003E8002CBF4FF0010E4FF0000EA74203D9BEF10B
:1003F800000F00F0D2801046E41B40EA0C4099E759
:10040800C1F120058B400CFA01F400FA01F922FA37
:1004180005F72CFA05FC8A401F4320FA05F3380C2F
:1004280023431FFA87FE1C0CBCFBF0F800FB18CC1A
:1004380044EA0C4408FB0EFCA4450ED93C1908F10B
:10044800FF3A2CBF4FF0010B4FF0000BA44503D926
:10045800BBF1000F00F0B880D046A4EB0C041FFAE3
:1004680083FCB4FBF0F300FB134403FB0EFE4CEAE1
:100478000444A6450ED93C1903F1FF302CBF4FF0B8
:10048800010C4FF0000CA64503D9BCF1000F00F099
:100498009F80034643EA0840A4EB0E04A0FB02EC4D
:1004A80064457346E04602D307D1F14505D2BEEB59
:1004B80002036CEB070C0138E0465EB1B9EB0302AE
:1004C80064EB080404FA05F522FA01F3CC401D4355
:1004D800C6E90054002132E742082F464B08AC46D3
:1004E80042EAC172AE46C407110C92B241EA034116
:1004F80042EA0142B1FBF5F1B3FBF5F01F23A2EB91
:100508000C0241EA004142E79D40C3F120029940B4
:100518009C402CFA02FC4FEA154E20FA02F2AFB2C8
:10052800BCFBFEF80A430EFB18CC110C41EA0C4147
:1005380008FB07FC8C4550D9691808F1FF302CBF1F
:100548004FF001094FF000098C4502D9B9F1000FAD
:1005580030D0A1EB0C01B1FBFEF808FB07FC0EFB49
:10056800181192B242EA0142624534D2AA1808F13F
:10057800FF312CBF4FF001094FF000096245BED290
:10058800B9F1000FBBD1A8F102012A44B7E7841AD8
:100598006CEB030201201746E7E62C4402382BE7F0
:1005A800ACF1020C2A440CE702392A44A5E62C4493
:1005B8000238BAE6A5EB0C0CA8F102006144B1FBC5
:1005C800FEF808FB07FCCAE7A8F102083C4444E728
:1005D800023B3C445EE7414691E7A1EB0C014046F3
:1005E800B1FBFEF808FB07FCB9E700BF704700BF86
:1005F800DFF834D001F008F9002103E00B4B5B5819
:10060800435004310A480B4B42189A42F6D30A4A1F
:1006180002E0002342F8043B084B9A42F9D308F061
:10062800FFFE00F06BFCFEE700000C203CA0000879
:1006380000000020680000208000002034FE002018
:10064800FEE7000080B582B000AF0D4BD3F88830CC
:100658000B4A43F00103C2F88830094BD3F88830BD
:1006680003F001037B607B68002200211D2001F05C
:1006780081FA1D2001F098FA00BF0837BD4680BDF9
:10068800000C024680B58EB000AF07F124030022AB
:100698001A605A609A60DA601A61BF4BD3F88C30DE
:1006A800BD4A43F01003C2F88C30BB4BD3F88C30F2
:1006B80003F010033B623B6AB74BD3F88C30B64A61
:1006C80043F48073C2F88C30B34BD3F88C3003F406
:1006D8008073FB61FB69B04BD3F88C30AE4A43F0B2
:1006E8004003C2F88C30AC4BD3F88C3003F0400395
:1006F800BB61BB69A84BD3F88C30A74A43F004030D
:10070800C2F88C30A44BD3F88C3003F004037B611F
:100718007B69A14BD3F88C309F4A43F00203C2F89F
:100728008C309D4BD3F88C3003F002033B613B695E
:10073800994BD3F88C30984A43F00803C2F88C30B0
:10074800954BD3F88C3003F00803FB60FB68924BA1
:10075800D3F88C30904A43F08003C2F88C308E4B2B
:10076800D3F88C3003F08003BB60BB688A4BD3F8A6
:100778008C30894A43F00103C2F88C30864BD3F899
:100788008C3003F001037B607B68834BD3F88C309B
:10079800814A43F02003C2F88C307F4BD3F88C3069
:1007A80003F020033B603B680122A1217B4802F053
:1007B800BDFE00224FF4E851794802F0B7FE01224D
:1007C8000221784802F0B2FE00221221764802F097
:1007D800ADFE002241F20201744802F0A7FE002299
:1007E8004FF41071724802F0A1FE012208217148ED
:1007F80002F09CFE002204216F4802F097FE0423B9
:100808007B620223BB620023FB6200233B630D2350
:100818007B6307F124031946624802F0A7FC4023D2
:100828007B620023BB620023FB6207F124031946A5
:100838005A4802F09BFC48F240037B620323BB62E8
:100848000023FB6207F124031946584802F08EFC86
:100858004FF400737B620223BB620123FB62022315
:100868003B6306237B6307F1240319464F4802F0D4
:100878007DFC4FF4F8537B620223BB620023FB62CA
:1008880002233B630C237B6307F124031946494881
:1008980002F06CFC02237B620223BB620123FB6231
:1008A80002233B6305237B6307F1240319463B4876
:1008B80002F05CFCA1237B620123BB620023FB6284
:1008C80000233B6307F124031946344802F04EFC29
:1008D800C0237B621223BB620023FB6200233B63BD
:1008E80004237B6307F124031946344802F03EFCD5
:1008F80060237B620223BB620023FB6200233B630D
:1009080007237B6307F124031946274802F02EFCCE
:100918004FF4E8537B620123BB620023FB62002390
:100928003B6307F1240319461D4802F01FFCB0235E
:100938007B620023BB620023FB6207F12403194694
:10094800184802F013FC02237B620123BB620023D8
:10095800FB6200233B6307F124031946114802F0A8
:1009680005FC20237B620223BB620023FB62022377
:100978003B6306237B6307F1240319460F4802F003
:10098800F5FB4FF480637B620223BB620023FB62AA
:1009980002233B63062313E0000C024600200242B8
:1009A800001C024200100242000C024200180242DF
:1009B80000140242000802420000024200040242FF
:1009C8007B6307F124031946BB4802F0CFFB1223CF
:1009D8007B620123BB620023FB6200233B6307F1B8
:1009E80024031946B54802F0C1FB41F249137B6262
:1009F800B34BBB620023FB6207F124031946B148DD
:100A080002F0B4FB4FF440737B620223BB62002305
:100A1800FB6202233B6308237B6307F12403194627
:100A2800A94802F0A3FB08237B620023BB620023D2
:100A3800FB6207F124031946A04802F097FB0C2338
:100A48007B620223BB620023FB6202233B63052314
:100A58007B6307F1240319469C4802F087FB42F2A6
:100A680022037B62964BBB620023FB6207F12403DF
:100A78001946974802F07AFB41F202037B62012390
:100A8800BB620023FB6200233B6307F12403194682
:100A9800894802F06BFB4FF4B0637B620023BB62B2
:100AA8000023FB6207F1240319468A4802F05EFB23
:100AB80004237B62824BBB620223FB6207F124039F
:100AC8001946844802F052FB04237B620223BB626E
:100AD8000023FB6202233B630C237B6307F124039F
:100AE8001946764802F042FB4FF4E0637B6202232A
:100AF800BB620023FB6200233B630D237B6307F18A
:100B080024031946744802F031FB4FF4C0537B624A
:100B18000223BB620023FB6203233B630A237B633C
:100B280007F1240319466C4802F020FB4FF41073B8
:100B38007B620123BB620023FB6200233B6307F156
:100B480024031946634802F011FB4FF4C0737B621B
:100B58001223BB620023FB6200233B6304237B63F5
:100B680007F124031946544802F000FBC0237B62B6
:100B78000223BB620023FB6202233B6308237B63DF
:100B880007F124031946524802F0F0FA01237B6268
:100B98000023BB620023FB6207F1240319464C487B
:100BA80002F0E4FAC0237B620223BB620023FB62EB
:100BB80002233B6305237B6307F124031946464858
:100BC80002F0D4FA08237B620123BB620023FB6294
:100BD80000233B6307F1240319463D4802F0C6FA97
:100BE80020237B620223BB620123FB6202233B6357
:100BF80005237B6307F124031946374802F0B6FA48
:100C080001237B620323BB620023FB6207F12403F9
:100C180019462D4802F0AAFA4FF480637B6202233A
:100C2800BB620023FB6200233B6301237B6307F164
:100C380024031946244802F099FA4FF440537B6282
:100C48001223BB620023FB6200233B6304237B6304
:100C580007F124031946194802F088FA04237B6235
:100C68000023BB620023FB6207F1240319461248E4
:100C780002F07CFA4FF400537B620223BB6200232C
:100C8800FB6200233B6301237B6307F124031946BE
:100C98000C4802F06BFA4FF400637B62084BBB62AE
:100CA8000023FB6207F124031946074802F05EFAA5
:100CB80049F2020312E000BF00180242000C02428F
:100CC80000001110001002420004024200200242FB
:100CD8000008024200140242000002427B62002324
:100CE800BB620023FB6207F124031946454802F062
:100CF8003DFA04237B620123BB620023FB620023CD
:100D08003B6307F1240319463F4802F02FFA4FF4DA
:100D180000437B620323BB620023FB6207F12403C9
:100D280019463A4802F022FA4FF4C0437B62122374
:100D3800BB620023FB6200233B6304237B6307F150
:100D4800240319462F4802F011FA10237B62304B16
:100D5800BB620023FB6207F1240319462A4802F00C
:100D680005FA4FF400437B62294BBB620023FB6208
:100D780007F124031946274802F0F8F90022072151
:100D88000B2000F0F7FE002207210C2000F0F2FEF5
:100D9800002207210D2000F0EDFE002207210E2081
:100DA80000F0E8FE002207210F2000F0E3FE0022F9
:100DB8000721102000F0DEFE00220721112000F09C
:100DC800D9FE00220721132000F0D4FE132000F0E2
:100DD800EBFE00220021162000F0CCFE162000F0C9
:100DE800E3FE00220021182000F0C4FE182000F0C5
:100DF800DBFE002207211A2000F0BCFE00BF3837B6
:100E0800BD4680BD000402420000024200100242BA
:100E1800000011100014024280B500AF002002F05B
:100E2800D9FB0346002B01D000F062F902F0F2FB77
:100E38000346002B01D000F05BF900BF80BD000025
:100E480080B584B000AFF860B9607A607B689AB208
:100E58004FF47A73B968044807F018FB7B681846A2
:100E68001037BD4680BD00BF2CFC002080B483B085
:100E780000AF78607B681B68054A934202D1054B36
:100E880002221A7000BF0C37BD465DF8047B70471C
:100E9800804002469C00002080B483B000AF786098
:100EA8007B681B68054A934202D1054B01221A70E0
:100EB80000BF0C37BD465DF8047B70478040024692
:100EC800ACFA002080B483B000AF78607B681B6800
:100ED800074A934206D1074B01221A707B681B6CA4
:100EE800054A136000BF0C37BD465DF8047B7047A8
:100EF80080400246ADFA0020B0FA002080B500AF6D
:100F080000F0BAFC00F0E5F800F082F8FFF7BAFB51
:100F1800FFF798FB00F0FAF800F0C2FBFFF77CFF40
:100F28002E4B1B78DBB2012B22D12C4B00221A70DE
:100F3800002240212A4802F0F9FA01224FF4805198
:100F4800284802F0F3FA284A284B1A60274B4FF436
:100F58007A425A60254B01221A72244A24492548AC
:100F680002F0C0FC0346002B1BD000F0C1F818E0CB
:100F78001A4B1B78DBB2022B13D11E4802F0DAFDA4
:100F880000224FF48051174802F0D0FA0122402184
:100F9800134802F0CBFA184808F010F90F4B00225A
:100FA8001A70164B1B78DBB2002B05D0134B0022AE
:100FB8001A70134808F002F9124B1B78DBB2002BA9
:100FC800AED0104B00221A700F4B1B6819460F4801
:100FD80008F08CF800F08CF8A2E700BF9C00002015
:100FE80000140242001C0242A0000020A0FA0020C7
:100FF800F8FA0020B4FA0020B89E0008ACFA0020E5
:10100800D89E0008ADFA0020B0FA0020E49E00083F
:1010180080B59EB000AF07F1180360220021184682
:1010280008F0AAF93B4600221A605A609A60DA6012
:101038001A615A614FF4403003F060F90346002BFF
:1010480001D000F055F85023BB6101237B631023C6
:10105800BB630023FB634FF000733B641023FB6406
:1010680002233B6501237B654FF40053FB65032393
:10107800BB6520233B6601237B660223BB660423F2
:10108800FB660C233B6700237B6707F118031846B0
:1010980003F020FA0346002B01D000F029F81F23A3
:1010A8003B6003237B600023BB600023FB600023BD
:1010B8003B6100237B613B460321184604F0E6F8B8
:1010C8000346002B01D000F013F800BF7837BD4667
:1010D80080BD80B500AF03F0EDF9022003F09AF966
:1010E8000346002B01D000F003F800BF80BD0000CC
:1010F80080B500AF01224FF40061034802F016FAF0
:1011080072B600BF00BFFDE7001C024280B500AF09
:101118002A4B2B4A1A60294B01229A60274B01223D
:101128001A73264B20221A61244B08225A61234B3A
:1011380000221A76214B012283F824201F4B10220B
:101148009A621E4B0022DA621C4B04221A631B4B64
:1011580000225A63194802F06DFA0346002B01D0A9
:10116800FFF7C6FF174B00221A60164B00225A6081
:10117800144B50229A60134B2022DA60114B002244
:101188005A61104B01221A760E4B0022DA610D4B80
:10119800012283F820200B4B00225A62094B0022BF
:1011A80083F83420074B00225A66064B00229A66C1
:1011B800044B0022DA6600BF80BD00BFB4FA0020ED
:1011C80080400246F8FA002080B5D6B000AF07F597
:1011D800AC73A3F5AA73186007F5A27300221A600E
:1011E8005A609A60DA601A6107F1D8036C2200210C
:1011F800184608F0C1F807F5AC73A3F5A4731846B0
:10120800C8231A46002108F0B7F807F5AC73A3F510
:10121800AA731B681B687D4A934240F0F18007F56A
:10122800AC73A3F5A4714FF400324FF00003C1E989
:10123800002307F5AC73A3F5A4734FF48022C3F819
:101248008C2007F11003184604F0F0FB0346002B2E
:1012580001D0FFF74DFF6E4BD3F894306C4A43F43E
:101268008063C2F894306A4BD3F8943003F48062F8
:1012780007F5AC73A3F5A6731A6007F5AC73A3F56D
:10128800A6731B68624BD3F88C30614A43F0100395
:10129800C2F88C305E4BD3F88C3003F0100207F59F
:1012A800AC73A3F5A8731A6007F5AC73A3F5A8731C
:1012B8001B684FF4C063C7F844310223C7F84831AC
:1012C8000023C7F84C310023C7F850310323C7F86F
:1012D800543107F5A27319464E4801F047FF212300
:1012E800C7F8D8306223C7F8DC300023C7F8E030ED
:1012F8000023C7F8E4300023C7F8E8304FF4002390
:10130800C7F8EC300123C7F8F0304FF48033C7F842
:10131800F4300123C7F8FC300123C7F8003100235B
:10132800C7F804310023C7F808310023C7F80C3187
:101338000023C7F81C310023C7F810310023C7F871
:10134800143107F1D8033449184601F04DF9034622
:10135800002B01D0FFF7CCFE2F4A00212F4801F0C7
:1013680059F90346002B01D0FFF7C2FE2B4801F0C4
:101378001AFA0346002B01D0FFF7BAFE284B294A78
:101388001A60274B00229A63254B0022DA63244B0C
:1013980000221A64224B00225A64214B81229A644B
:1013A8001F4800F061FF0346002B01D0FFF7A0FEA5
:1013B8001A491B4801F058FA0346002B01D0FFF7E1
:1013C80097FE07F5AC73A3F5AA731B68144A9A63D2
:1013D800134A07F5AC73A3F5AA731B68D3651021EC
:1013E8000F4800F0E0FE0346002B01D0FFF780FE17
:1013F80000220021702000F0BDFB702000F0D4FB1B
:1014080000BF07F5AC77BD4680BD00BF80400246EF
:10141800000C02460010024274FB002098FB0020DA
:10142800B0FB00205000024080B582B000AF0A4BEC
:10143800D3F89430084A43F00403C2F89430064BBA
:10144800D3F8943003F004037B607B6803F032F830
:1014580000BF0837BD4680BD000C024680B400AF0F
:1014680000BFFDE780B400AF00BFFDE780B400AF68
:1014780000BFFDE780B400AF00BFFDE780B400AF58
:1014880000BFFDE780B400AF00BFBD465DF8047B38
:10149800704780B400AF00BFBD465DF8047B70475D
:1014A80080B400AF00BFBD465DF8047B704780B5CF
:1014B80000AF00F087FA00BF80BD80B500AF012003
:1014C80002F04CF800BF80BD80B500AF022002F0EA
:1014D80045F800BF80BD80B500AF042002F03EF89B
:1014E80000BF80BD80B500AF082002F037F800BF0C
:1014F80080BD80B500AF102002F030F800BF80BD7D
:1015080080B500AF202002F029F800BF80BD80B56B
:1015180000AF402002F022F800BF80BD80B500AFC8
:101528004FF4807002F01AF800BF80BD80B500AF9C
:101538004FF4006002F012F800BF80BD80B500AF24
:101548004FF4005002F00AF8024B01221A7000BF53
:1015580080BD00BF9C00002080B500AF4FF4004064
:1015680001F0FCFF00BF80BD80B500AF024800F06D
:10157800B9FC00BF80BD00BFB0FB002080B500AF44
:10158800024802F07CFB00BF80BD00BFB4FA002017
:1015980080B586B000AFF860B9607A6000237B61DF
:1015A8000AE0AFF300800146BB685A1CBA60CAB2B1
:1015B8001A707B6901337B617A697B689A42F0DB38
:1015C8007B6818461837BD4680BD80B483B000AF2D
:1015D80078604FF0FF3318460C37BD465DF8047B42
:1015E800704780B483B000AF786039603B684FF4CF
:1015F80000525A60002318460C37BD465DF8047B3C
:10160800704780B483B000AF7860012318460C3768
:10161800BD465DF8047B704780B485B000AFF860C4
:10162800B9607A60002318461437BD465DF8047B1C
:101638007047000080B586B000AF7860144A154B3B
:10164800D31A7B617B693B61134B1B68002B02D16A
:10165800114B124A1A60104B1A687B6813443A6996
:101668009A4207D207F0D6FE03460C221A604FF0C2
:10167800FF3309E0084B1B68FB60074B1A687B685F
:101688001344054A1360FB6818461837BD4680BDE9
:1016980000000C200040000028FC002038FE00203C
:1016A80080B500AF224B234A1A60214B4FF4E13238
:1016B8005A601F4B00229A601D4B0022DA601C4BB7
:1016C80000221A611A4B0C225A61194B00229A61A6
:1016D800174B0022DA61164B00221A62144B0022C3
:1016E8005A62134B00229A62114806F07FFE0346A5
:1016F800002B01D0FFF7FCFC00210D4807F068FB28
:101708000346002B01D0FFF7F3FC0021084807F03F
:101718009DFB0346002B01D0FFF7EAFC044807F0C5
:101728001EFB0346002B01D0FFF7E2FC00BF80BD83
:101738002CFC0020004C004080B5BCB000AF7860A5
:1017480007F1DC0300221A605A609A60DA601A61B5
:1017580007F11003C8220021184607F00DFE7B6828
:101768001B68264A934244D14FF008024FF0000309
:10177800C7E904230023FB6607F11003184604F0A9
:1017880055F90346002B01D0FFF7B2FC1C4BD3F8E8
:101798009C301B4A43F40023C2F89C30184BD3F802
:1017A8009C3003F40023FB60FB68154BD3F88C30A6
:1017B800134A43F00103C2F88C30114BD3F88C3034
:1017C80003F00103BB60BB680323C7F8DC300223C6
:1017D800C7F8E0300023C7F8E4300023C7F8E83042
:1017E8000823C7F8EC3007F1DC031946054801F077
:1017F800BDFC00BFF037BD4680BD00BF004C0040B7
:10180800000C02460000024280B400AF184BD3F827
:101818008830174A43F47003C2F88830154B012208
:101828001A60144B0022DA61124B00221A62114B23
:1018380000225A620F4B1B680E4A23F0A85323F468
:10184800102313600B4B00229A620A4B1B68094A4B
:1018580023F480231360074B00221A65044B4FF0D2
:1018680000629A6000BFBD465DF8047B704700BF08
:1018780000ED00E0000C024680B500AF124B1B687B
:10188800114A43F480731360032000F068F903F0F1
:10189800EFFE02460D4B1B6A03F00F030C49CB5CAD
:1018A80022FA03F30B4A1360042000F0ADF90F206D
:1018B80000F012F80346002B01D0012302E0FFF7E5
:1018C800B3FD0023184680BD00200240000C0246EC
:1018D800F89E00080000002080B584B000AF786052
:1018E8000023FB60334B1B78002B01D101235CE004
:1018F800314B1B6803F00403042B0CD12F4B1A68DF
:101908002C4B1B7819464FF47A73B3FBF1F3B2FBF7
:10191800F3F3FB6037E000F0CFF9B860BB68022B47
:1019280023D0BB68022B2DD8BB68002B03D0BB6823
:10193800012B0DD026E0214B1A681E4B1B78194647
:101948004FF4FA53B3FBF1F3B2FBF3F3FB601AE085
:10195800184B1B781A464FF47A73B3FBF2F34FF423
:10196800FA42B2FBF3F3FB600DE0124B1B781A4608
:101978004FF47A73B3FBF2F34FF40042B2FBF3F384
:10198800FB6000E000BFF86800F01CF90346002B7C
:1019980001D0012309E0002279684FF0FF3000F000
:1019A800E9F8074A7B681360002318461037BD46DC
:1019B80080BD00BF0800002010E000E0000000200B
:1019C8000400002080B400AF064B1B781A46064B73
:1019D8001B681344044A136000BFBD465DF8047BCE
:1019E800704700BF08000020C0FC002080B400AF92
:1019F800034B1B681846BD465DF8047B704700BF63
:101A0800C0FC002080B485B000AF78607B6803F02C
:101A18000703FB600C4BDB68BB60BA684FF6FF033B
:101A28001340BB60FB681A02BB68134343F0BF63F3
:101A380043F40033BB60044ABB68D36000BF14376B
:101A4800BD465DF8047B704700ED00E080B400AF50
:101A5800044BDB681B0A03F007031846BD465DF814
:101A6800047B704700ED00E080B483B000AF03460C
:101A7800FB7197F90730002B0BDBFB7903F01F0292
:101A8800074997F907305B09012000FA02F241F88B
:101A9800232000BF0C37BD465DF8047B704700BFAC
:101AA80000E100E080B483B000AF03463960FB7109
:101AB80097F90730002B0ADB3B68DAB20C4997F933
:101AC80007301201D2B20B4483F800230AE03B68C6
:101AD800DAB20849FB7903F00F03043B1201D2B2D2
:101AE8000B441A7600BF0C37BD465DF8047B70477F
:101AF80000E100E000ED00E080B489B000AFF860DC
:101B0800B9607A60FB6803F00703FB61FB69C3F106
:101B18000703042B28BF0423BB61FB690433062B8E
:101B280002D9FB69033B00E000237B614FF0FF32E1
:101B3800BB6902FA03F3DA43BB681A407B699A402F
:101B48004FF0FF317B6901FA03F3D9437B680B40FF
:101B5800134318462437BD465DF8047B704780B5AB
:101B680082B000AF78607868FFF74CFF00BF083795
:101B7800BD4680BD80B586B000AF0346B9607A60C7
:101B8800FB73FFF763FF78617A68B9687869FFF7D4
:101B9800B3FF024697F90F3011461846FFF782FF48
:101BA80000BF1837BD4680BD80B582B000AF034680
:101BB800FB7197F907301846FFF756FF00BF083743
:101BC800BD4680BD80B483B000AF78607B68013BC0
:101BD800B3F1807F01D301230DE00A4A7B68013B02
:101BE8005360084B00229A60064B1B68054A43F075
:101BF80003031360002318460C37BD465DF8047BC9
:101C0800704700BF10E000E080B483B000AF786098
:101C18007B68042B44D801A252F823F0471C000823
:101C2800651C0008871C0008A91C0008391C00084E
:101C38001F4B1B681E4A43F00403136031E01C4B22
:101C48001B681B4A23F0040313601A4BD3F8E030D7
:101C5800184A23F44003C2F8E03022E0144B1B6812
:101C6800134A23F004031360124BD3F8E03023F433
:101C78004003104A43F48003C2F8E03011E00C4BF3
:101C88001B680B4A23F0040313600A4BD3F8E030B7
:101C980023F44003074A43F40003C2F8E03000E0AD
:101CA80000BF00BF0C37BD465DF8047B704700BF1E
:101CB80010E000E0000C024680B483B000AF194B7E
:101CC8001B6803F00403002B02D004237B6021E08F
:101CD800154BD3F8E03003F440033B603B68B3F5A1
:101CE800000F11D03B68B3F5000F10D83B68002BEC
:101CF80004D03B68B3F5800F03D008E000237B6075
:101D080008E001237B6005E002237B6002E00023FA
:101D18007B6000BF7B6818460C37BD465DF8047BC6
:101D2800704700BF10E000E0000C024680B584B0A8
:101D380000AFF860B9607A603B60FB68002B01D1A6
:101D480001234FE0FB6893F84C30012B01D10223AB
:101D580048E0FB68012283F84C20FB6893F8543074
:101D6800DBB2012B36D1FB68022283F85420FB68D2
:101D780000229A653B687A68B968F86800F04FFAFB
:101D8800FB681B685A69FB681B6842F4BA425A61CF
:101D9800FB685B6E002B07D0FB681B685A69FB6801
:101DA8001B6842F400725A61FB681B6F002B07D056
:101DB800FB681B685A69FB681B6842F400525A6149
:101DC800FB681B685A69FB681B6842F001025A618C
:101DD800002307E0FB6840229A65FB68002283F82D
:101DE8004C20012318461037BD4680BD80B584B00D
:101DF80000AF7860FFF7FAFDF8607B68002B01D12F
:101E080001236BE07B6893F85430DBB2022B08D0D7
:101E18007B6820229A657B68002283F84C20012386
:101E28005CE07B681B685A697B681B6842F00402A7
:101E38005A617B68052283F8542020E0FFF7D6FD1D
:101E48000246FB68D31A052B19D97B689B6D43F0B2
:101E580010027B689A657B68032283F854207B68AC
:101E68001B6D03F08003002B03D07B685B6F01229E
:101E78001A737B68002283F84C2001232EE07B68CC
:101E88001B681B6903F40053002BD7D07B681B68C1
:101E98005A697B681B6842F002025A617B68042217
:101EA80083F854207B681B684FF4FE42DA607B6835
:101EB800012283F854207B681B6D03F08003002BFC
:101EC80007D07B685B6F01221A737B681B6800224E
:101ED8009A647B68002283F84C2000231846103748
:101EE800BD4680BD80B586B000AF78607B681B6852
:101EF80023F47F6323F00F037B617B681B68C3F3C4
:101F08000B03503BDB0903F01F03012202FA03F322
:101F18003B617B69DB683A691340FB60FB68002B17
:101F280000F03B817B681B681B6903F48063002B0E
:101F380011D07B681B685B6903F48063002B0AD0AF
:101F48007B681B684FF48062DA607B689B6D43F0A6
:101F580001027B689A657B681B681B6903F4006350
:101F6800002B11D07B681B685B6903F40063002BAE
:101F78000AD07B681B684FF40062DA607B689B6D4F
:101F880043F002027B689A657B681B681B6903F44F
:101F98008053002B11D07B681B685B6903F4805366
:101FA800002B0AD07B681B684FF48052DA607B688C
:101FB8009B6D43F004027B689A657B681B681B690C
:101FC80003F48043002B11D07B681B685B6903F422
:101FD8008043002B0AD07B681B684FF48042DA608C
:101FE8007B689B6D43F008027B689A657B681B6879
:101FF8001B6903F40073002B13D07B681B685B69B3
:1020080003F40073002B0CD07B681B684FF400723C
:10201800DA607B685B6E002B03D07B685B6E786848
:1020280098477B681B681B6903F40053002B4CD04E
:102038007B681B685B6903F40053002B45D07B6801
:102048001B684FF40052DA607B6893F85430DBB2B7
:10205800042B2ED17B681B685A697B681B6822F4A5
:1020680000525A617B681B685A697B681B6842F09A
:1020780002025A617B68012283F854207B681B6D39
:1020880003F08003002B07D07B685B6F01221A7373
:102098007B681B6800229A647B68002283F84C20C6
:1020A8007B68DB6E002B7AD07B68DB6E786898479C
:1020B80075E07B68052283F854207B681B6F002B32
:1020C80003D07B681B6F786898477B681B681B691F
:1020D80003F48073002B39D07B681B685B6903F4B9
:1020E8008073002B32D07B681B6D03F08003002BBC
:1020F80012D07B681B68DB6F002B16D17B681B68CE
:102108009B6C002B11D17B68012283F854207B68DB
:102118005B6F01221A7308E07B681B689B6C002BBD
:1021280003D17B68012283F854207B681B684FF435
:102138004072DA607B68002283F84C207B681B6E53
:10214800002B03D07B681B6E786898477B689B6D73
:10215800002B25D07B681B685A697B681B6842F096
:1021680002025A617B68012283F854207B681B6D48
:1021780003F08003002B03D07B685B6F01221A7386
:102188007B68002283F84C207B689B6E002B07D06D
:102198007B689B6E7868984702E000BF00E000BF4C
:1021A8001837BD4680BD80B485B000AF786039600F
:1021B8007B68002B01D101232BE07B681B6823F48B
:1021C8007F6323F00F03FB607B681B68C3F30B037B
:1021D800503BDB0903F01F03012202FA03F3BB6043
:1021E8003B6803F01003002B12D03B6803F0110387
:1021F800112B06D1FB685A68BB681A43FB685A6002
:1022080006E0FB685A68BB68DB431A40FB685A6003
:10221800002318461437BD465DF8047B704780B428
:1022280085B000AFF860B9607A603B60FB681B68F6
:102238009B6C1B0C1B043A6891B2FA6812680B433A
:102248009364FB681B684FF4FE42DA60FB681B6806
:10225800BA68DA64FB681B687A681A6500BF1437C5
:10226800BD465DF8047B704780B584B000AF7860E8
:10227800FFF7BCFBF8607B68002B01D10123DBE092
:102288007B681B686E4A934200F09F807B681B68DE
:102298006C4A934200F099807B681B686A4A9342B3
:1022A80000F093807B681B68684A934200F08D8039
:1022B8007B681B68664A934200F087807B681B68CE
:1022C800644A934200F081807B681B68624A9342AB
:1022D8007BD07B681B68614A934276D07B681B6819
:1022E8005F4A934271D07B681B685E4A93426CD008
:1022F8007B681B685C4A934267D07B681B685B4AB3
:10230800934262D07B681B68594A93425DD07B68D0
:102318001B68584A934258D07B681B68564A9342B8
:1023280053D07B681B68554A93424ED07B681B6824
:10233800534A934249D07B681B68524A934244D01F
:102348007B681B68504A93423FD07B681B684F4AA2
:1023580093423AD07B681B684D4A934235D07B68DC
:102368001B684C4A934230D07B681B684A4A9342A8
:102378002BD07B681B68494A934226D07B681B6830
:10238800474A934221D07B681B68464A93421CD037
:102398007B681B68444A934217D07B681B68434A92
:1023A800934212D07B681B68414A93420DD07B68E8
:1023B8001B68404A934208D07B681B683E4A934298
:1023C80003D07B681B683D4A93427B68002283F8F0
:1023D8004C207B68022283F854207B681B685A696A
:1023E8007B681B6842F006025A610FE0FFF7FEFAAD
:1023F8000246FB68D31A052B08D97B6810229A6518
:102408007B68032283F85420012315E07B681B684E
:102418005B6903F00103002BE8D1786800F0BAFA91
:102428007B689A6C7B681A657B6800229A657B6872
:10243800012283F85420002318461037BD4680BD7A
:102448005000024050000250D0000240D00002501C
:102458005001024050010250D0010240D001025008
:102468005002024050020250D0020240D0020250F4
:102478005003024050030250D0030240D0030250E0
:102488005004024050040250D0040240D0040250CC
:102498005005024050050250D0050240D0050250B8
:1024A8005006024050060250D0060240D0060250A4
:1024B8005007024050070250D0070240D007025090
:1024C80080B586B000AF78607B68002B03D07B684E
:1024D8005B6F002B01D1012382E07B6893F85430B5
:1024E800FB757B681B685B6903F480333B61FB7D8C
:1024F800012B05D0FB7D022B6AD13B69002B67D0ED
:102508007B6893F85430DBB2012B57D17B6893F882
:102518004C30012B01D1022362E07B68012283F851
:102528004C207B68022283F854207B685B6F022270
:102538001A737B6800229A657B685B6F00221A61B8
:102548007B681B685A697B681B6842F4BA425A6107
:102558007B685B6E002B07D07B681B685A697B68B9
:102568001B6842F400725A617B681B6F002B07D00E
:102578007B681B685A697B681B6842F400525A6181
:102588007B685B6F1B6807F10C010022184600F09E
:102598001DFD7B685B6F1B6819467B681A680B0C0E
:1025A8001B0413607B685B6F1B681A464FF6FC734D
:1025B8001340F9687A6812680B43D3677B681B6815
:1025C8005A697B681B6842F001025A61002307E0E0
:1025D8007B6840229A657B68002283F84C2001239F
:1025E80018461837BD4680BD80B582B000AF786008
:1025F80039607B68002B02D03B68002B01D1012396
:1026080004E03968786800F01DFB00231846083795
:10261800BD4680BD80B58CB000AFF860B9607A6007
:10262800FB68002B02D07B68002B01D10123B6E0A8
:10263800FB685B69012B04D1FB6804221A61012342
:10264800ADE0FB681B687A68B968184600F052FC70
:102658000346002B04D0FB6805221A6101239EE083
:10266800FB681B687A68B968184600F073FC034673
:10267800002B04D0FB6804221A6101238FE0FB6859
:1026880002221A73FB6800221A6107F1280207F177
:102698002C031946786800F099FCFB681B68002B2E
:1026A8001AD1BB68002B06D1FB687A681A60FB68F0
:1026B80001229A606CE0FB68BA681A607A684FF683
:1026C800FC731340F96ABA6A1943BB6843F82210CD
:1026D800FB6802229A605BE0BB68002B0FD1FB68A5
:1026E8001B681A464FF6FC731340F96ABA6A194315
:1026F8007B6843F82210FB687A681A6043E0BB6A7B
:102708007B6107F114031A46B968F86800F08EFC7B
:102718000346002B32D1FA69FB689B689A421AD1AA
:10272800FB685B68002B0BD0FB685B681A464FF6AA
:10273800FC731340F96ABA6A19437B6843F822109C
:102748007A684FF6FC731340F96ABA6A1943BB6892
:1027580043F8221017E0B96ABA6ABB6853F8211027
:102768007B6843F822107A684FF6FC731340F96AC5
:10277800BA6A1943BB6843F8221004E0FB680622D2
:102788001A6101230BE0FB689B685A1CFB689A607E
:10279800FB6800221A61FB6801221A73002318469D
:1027A8003037BD4680BD80B58AB000AF78607B68A1
:1027B800002B01D1012352E07B681B68002B04D158
:1027C8007B6802221A61012349E07B685B68002B61
:1027D8000CD07B685A687B681B689A4201D1002339
:1027E8003DE07B6804221A61012338E07B685B695D
:1027F800012B04D17B6804221A6101232FE07B6836
:1028080002221A737B6800221A617B681B6807F131
:10281800200207F12401184600F0D8FB3B6AFB6050
:1028280007F10C031A460021786800F0FFFB7B686B
:102838001B681A464FF6FC731340796ABA6910464A
:102848003A6A0B4340F822307B681A687B685A6002
:102858007B6800221A617B6801221A7300231846DC
:102868002837BD4680BD000080B485B000AF7860D1
:1028780039607B68002B02D03B68002B01D1012313
:1028880072E07B6893F85430FB737B6893F854309C
:10289800DBB2022B02D0FB7B052B08D17B684022E0
:1028A8009A657B68002283F84C2001235CE03B6832
:1028B8001B7BDBB2022B04D13B6801221A61012386
:1028C80052E07B681B682B4A934222D07B681B68C6
:1028D800294A93421DD07B681B68284A934218D026
:1028E8007B681B68264A934213D07B681B68254A7D
:1028F80093420ED07B681B68234A934209D07B68B9
:102908001B68224A934204D07B681B68204A934282
:1029180001D1012300E00023002B0BD13B681B6889
:102928001B6A03F00203002B04D03B6803221A61E0
:10293800012319E07B681B6D812B08D13B685B681C
:10294800002B0DD13B6804221A6101230CE03B687F
:102958005B68002B04D03B6804221A61012303E062
:102968007B683A685A67002318461437BD465DF8F5
:10297800047B70475006024050060250D0060240C1
:10298800D00602505007024050070250D0070240BC
:10299800D007025080B485B000AF78607B689A6B2E
:1029A8007B68DB6B1343FB607B681B68854A93423B
:1029B80000F0A0807B681B68834A934200F09A80ED
:1029C8007B681B68814A934200F094807B681B688F
:1029D8007F4A934200F08E807B681B687D4A934251
:1029E80000F088807B681B687B4A934200F08280F5
:1029F8007B681B68794A93427CD07B681B68784A5D
:102A0800934277D07B681B68764A934272D07B6882
:102A18001B68754A93426DD07B681B68734A934262
:102A280068D07B681B68724A934263D07B681B68D6
:102A3800704A93425ED07B681B686F4A934259D0B4
:102A48007B681B686D4A934254D07B681B686C4A4C
:102A580093424FD07B681B686A4A93424AD07B688E
:102A68001B68694A934245D07B681B68674A934252
:102A780040D07B681B68664A93423BD07B681B68E2
:102A8800644A934236D07B681B68634A934231D0CC
:102A98007B681B68614A93422CD07B681B68604A3C
:102AA800934227D07B681B685E4A934222D07B689A
:102AB8001B685D4A93421DD07B681B685B4A934242
:102AC80018D07B681B685A4A934213D07B681B68EE
:102AD800584A93420ED07B681B68574A934209D0E4
:102AE8007B681B68554A934204D07B681B68544A2C
:102AF800934201D1012300E00023002B04D07B681E
:102B08001B6CFA681343FB607B681B685B6923F4E2
:102B180043017B681B68FA680A435A617B681B6833
:102B280000221A647B681B687A68526C5A647B6856
:102B38001B6800229A647B681B680022DA647B6841
:102B48001B6800221A657B681B68364A934222D0AC
:102B58007B681B68344A93421DD07B681B68334AE4
:102B6800934218D07B681B68314A934213D07B6824
:102B78001B68304A93420ED07B681B682E4A9342EA
:102B880009D07B681B682D4A934204D07B681B6878
:102B98002B4A934201D1012300E00023002B07D0E8
:102BA8007B681B6800225A657B681B6800229A654F
:102BB8007B681B680022DA6700BF1437BD465DF8E2
:102BC800047B70475000024050000250D000024081
:102BD800D00002505001024050010250D001024082
:102BE800D00102505002024050020250D00202406E
:102BF800D00202505003024050030250D00302405A
:102C0800D00302505004024050040250D004024045
:102C1800D00402505005024050050250D005024031
:102C2800D00502505006024050060250D00602401D
:102C3800D00602505007024050070250D007024009
:102C4800D007025080B485B000AF786039607B68E7
:102C58005A697B68DB691A437B68DB6B1A437B68BC
:102C68001B691A437B689B691A433B681A607B6837
:102C78001B6803F02003002B17D03B681A687B6899
:102C8800D96A7B689B6B19437B689B6A013B1B0570
:102C980003F07C7319437B685B6A013B1B0103F4F7
:102CA8007C730B431A433B681A607B681A6B7B681A
:102CB800596840F27F230B401A433B685A607B688F
:102CC800DB68B3F5806F0CD17B681B6803F02003C9
:102CD800002B11D03B685B6843F480623B685A6004
:102CE8000AE07B68DB68B3F5007F05D13B685B6869
:102CF80043F400723B685A607B685B6C002B0FD012
:102D08003B685A687B68196C7B685B6C19437B6805
:102D18009B6C1B0403F47C130B431A433B685A60F7
:102D28007B689B6E9AB23B689A607B681B6803F06D
:102D38000203002B4ED03B689A687B68DB6C013B32
:102D480019046A4B0B401A433B689A607B681B6DF9
:102D5800002B06DA3B689B6843F080523B689A6018
:102D680005E03B689B6823F080523B689A607B686B
:102D78005B6D002B06DA3B689B6843F000523B68AA
:102D88009A6005E03B689B6823F000523B689A60B4
:102D98007B689B6D002B06DA3B689B6843F080429A
:102DA8003B689A6005E03B689B6823F080423B687B
:102DB8009A607B68DB6D002B06DA3B689B6843F002
:102DC80000423B689A6005E03B689B6823F000423C
:102DD8003B689A607B681A6E3B68DA607B685A6E5B
:102DE8003B681A617B681B6803F00203002B5DD007
:102DF8007B681B6D002B09DA7B681B6D5B42FB60EF
:102E0800FB68C3F30C023B685A6105E07B681B6DE5
:102E1800C3F30C023B685A617B685B6D002B0DDACB
:102E28007B685B6D5B42FB603B685A69FB68190411
:102E38002F4B0B401A433B685A6109E03B685A69BB
:102E48007B685B6D19042A4B0B401A433B685A6137
:102E58007B689B6D002B08DA7B689B6D5B42FB608F
:102E6800FB689AB23B689A6104E07B689B6D9AB2F2
:102E78003B689A617B68DB6D002B0BDA7B68DB6D46
:102E88005B42FB603B689A69FB681B041A433B681A
:102E98009A6107E03B689A697B68DB6D1B041A43FB
:102EA8003B689A613B680022DA6102E03B680022D5
:102EB8005A617B681A683B681A627B681B6803F072
:102EC8000203002B06D03B681B6A43F4E0623B68B0
:102ED8001A6205E03B681B6A43F4A0623B681A6209
:102EE80000BF1437BD465DF8047B70470000FF073C
:102EF8000000FF1F80B487B000AFF860B9607A6047
:102F0800FA68BB681A437B6813431B0C1B043B61BC
:102F180000237B61FB68002B02D0FB687B610AE021
:102F2800BB68002B02D0BB687B6104E07B68002B88
:102F380001D07B687B617B691B0C1B043A699A4250
:102F480001D0012300E0002318461C37BD465DF878
:102F5800047B704780B487B000AFF860B9607A60CE
:102F680000237B61FB68002B04D0FB681B6ADBB283
:102F78007B610EE0BB68002B04D0BB681B6ADBB228
:102F88007B6106E07B68002B03D07B681B6ADBB2A1
:102F98007B61BB68002B07D0BB681B6ADBB27A6910
:102FA8009A4201D002230BE07B68002B07D07B6894
:102FB8001B6ADBB27A699A4201D0032300E000233E
:102FC80018461C37BD465DF8047B704780B485B051
:102FD80000AFF860B9607A60FB681B6A03F002030F
:102FE800002B0CD0BB68002B02D0BB680D4A1A60BE
:102FF8007B68002B0FD07B6807221A600BE0BB6848
:10300800002B02D0BB68084A1A607B68002B02D0EC
:103018007B6805221A6000BF1437BD465DF8047B43
:10302800704700BF000001FE000001F880B489B0BD
:1030380000AFF860B9607A600023FB610023BB61D0
:1030480000237B617B681B683B61BB68002B42D116
:103058001DE0FB69002B07D1FB681B681A464FF679
:10306800FC731340BB610FE0BB697B61FB681B68A5
:103078001B0C1B04BA6913441A463B6952F82320F7
:103088004FF6FC731340BB61FB690133FB61FB68BE
:103098009B68FA699A42DCD329E0FB69002B07D1C7
:1030A800FB681B681A464FF6FC731340BB610FE0C0
:1030B800BB697B61FB681B681B0C1B04BA69134462
:1030C8001A463B6952F823204FF6FC731340BB6144
:1030D800FB690133FB61FB689B68FA699A4206D277
:1030E800BA684FF6FC731340BA699A42D5D1BB68E7
:1030F800002B08D0BA684FF6FC731340BA699A429D
:1031080001D001232BE07B68FA699A60FB681B6891
:103118001B0C1B047A691A437B685A60FB681B689E
:103128001B0C1B04BA691A437B68DA607B68DB688E
:103138001A463B6952F82330002B0FD07B68DB68B6
:103148001A463B6952F823304FF6FC721A40FB6866
:103158001B681B0C1B041A437B681A610023184662
:103168002437BD465DF8047B7047000080B489B001
:1031780000AF7860396000237B617B683B61C2E106
:103188003B681A6801217B6901FA03F31340FB606D
:103198007B69BB61FB68002B00F0B2817B68554AF4
:1031A80093425DD17B681B68FB6101227B6902FA4F
:1031B80003F3DB43FA691340FB613B685B6803F088
:1031C80001027B6902FA03F3FA691343FB617B6826
:1031D800FA691A60484A7B6952F833303B61464ABB
:1031E8007B69DB0013445B68BB61BB69DA083B6938
:1031F800083253F82230FB61BB6903F007039B00D8
:103208000F2202FA03F3DB43FA691340FB61BB693F
:1032180003F007039B000B2202FA03F3FA69134336
:10322800FB61BB69DA083B690832F96943F8221087
:103238003B691B68FB61BB695B00032202FA03F36D
:10324800DB43FA691340FB61BB695B00022202FAA7
:1032580003F3FA691343FB613B69FA691A6067E093
:103268003B685B68022B03D03B685B68122B45D137
:103278007B69DA087B68083253F82230FB617B6986
:1032880003F007039B000F2202FA03F3DB43FA69FA
:103298001340FB613B681B6903F00F027B6903F075
:1032A80007039B0002FA03F3FA691343FB617B6986
:1032B800DA087B680832F96943F822103B691B6811
:1032C800FB61BB695B00032202FA03F3DB43FA6983
:1032D8001340FB613B685B6803F00302BB695B005A
:1032E80002FA03F3FA691343FB613B69FA691A604E
:1032F8001EE000BF00000246509F00083B691B68A3
:10330800FB61BB695B00032202FA03F3DB43FA6942
:103318001340FB613B685B6803F00302BB695B0019
:1033280002FA03F3FA691343FB613B69FA691A600D
:103338003B685B68012B0BD03B685B68022B07D0AE
:103348003B685B68112B03D03B685B68122B30D15C
:103358003B699B68FB61BB695B00032202FA03F3CC
:10336800DB43FA691340FB613B68DA68BB695B00C1
:1033780002FA03F3FA691343FB613B69FA699A603D
:103388003B695B68FB610122BB6902FA03F3DB431B
:10339800FA691340FB613B685B681B0903F0010293
:1033A800BB6902FA03F3FA691343FB613B69FA69E3
:1033B8005A603B685B68032B07D13B685B68032B4B
:1033C8001BD13B689B68012B17D03B69DB68FB610D
:1033D800BB695B00032202FA03F3DB43FA6913407B
:1033E800FB613B689A68BB695B0002FA03F3FA6900
:1033F8001343FB613B69FA69DA603B685B6803F079
:103408008053002B7CD0474A7B699B08183352F8BD
:103418002330FB617B6903F00303DB000F2202FA10
:1034280003F3DB43FA691340FB617B689A0A3E4B5E
:1034380013407A6902F00302D2009340FA691343F9
:10344800FB6138497B699B081833FA6941F82320E6
:10345800344B1B68FB61FB68DB43FA691340FB6173
:103468003B685B6803F48013002B03D0FA69FB68A0
:103478001343FB612B4AFB6913602A4B5B68FB61B2
:10348800FB68DB43FA691340FB613B685B6803F444
:103498000013002B03D0FA69FB681343FB61214A30
:1034A800FB6953601F4BD3F88430FB61FB68DB4337
:1034B800FA691340FB613B685B6803F40033002B37
:1034C80003D0FA69FB681343FB61164AFB69C2F82B
:1034D8008430144BD3F88030FB61FB68DB43FA6916
:1034E8001340FB613B685B6803F48033002B03D017
:1034F800FA69FB681343FB610A4AFB69C2F880302A
:103508007B6901337B613B681A687B6922FA03F3A4
:10351800002B7FF435AE00BF00BF2437BD465DF8F1
:10352800047B7047002002467F7F2F0080B483B061
:1035380000AF78600B467B8013467B707B78002B4E
:1035480003D07A887B689A6102E07A887B689A62FD
:1035580000BF0C37BD465DF8047B704780B582B06C
:1035680000AF0346FB800F4BDA68FB881340002B43
:1035780006D00C4AFB88D360FB88184600F014F884
:10358800084B1A69FB881340002B06D0054AFB88B4
:103598001361FB88184600F012F800BF0837BD46D3
:1035A80080BD00BF0020024680B483B000AF034650
:1035B800FB8000BF0C37BD465DF8047B704780B4C4
:1035C80083B000AF0346FB8000BF0C37BD465DF8F3
:1035D800047B704780B485B000AF78600023FB732C
:1035E8000B4B1B6803F00103002B02D00123FB7374
:1035F80007E0074B1B6823F0040205497B68134367
:103608000B60FB7B18461437BD465DF8047B70479A
:103618000004034080B400AF054B1B68044A43F024
:103628000103136000231846BD465DF8047B70470C
:103638000004034080B584B000AF78600023FB73BA
:103648007B68002B02D10123FB7341E17B681B6877
:10365800184600F031FC0346864A52F82330002B06
:1036680002D00123FB7333E17868FDF7ADFD824B8F
:103678001B68002B1DD17B681B68804A934223D0AE
:103688007B681B687E4A93421ED07B681B687D4A14
:10369800934219D07B681B687B4A934214D07B689D
:1036A8001B687A4A93420FD07B681B68784A93421A
:1036B8000AD0784B1B68002B40F090807B681B6811
:1036C800754A934240F08A807B681B68724A93422D
:1036D80001D1724B00E0724BBB60BB685B68002B8A
:1036E80002DA0123FB7379E07B681B68634A934223
:1036F80018D07B681B68624A934213D07B681B68AA
:10370800604A93420ED07B681B685F4A934209D097
:103718007B681B685D4A934204D07B681B685C4ADF
:1037280093420DD1BB681B6823F0F002BB681A6096
:10373800BB681A687B685B681B011A43BB681A6020
:10374800BB6800225A60BB685A687B689B68013B6B
:103758001B061A43BB685A607B681B7B012B37D159
:10376800BB685A687B685B69013B19047B681B6905
:1037780019437B681B691B090B431A43BB685A60D2
:103788007B681B7E012B23D17B681B683B4A9342D5
:1037980012D07B681B683A4A93420DD07B681B683D
:1037A800384A934208D07B681B68374A934203D053
:1037B8007B681B68354A9342BB685A687B68D9693D
:1037C8007B681B6A0B43134343F01002BB685A60C3
:1037D800BB685B6843F00102BB685A60FB7B002B47
:1037E80028D17B6893F82430012B23D17B681B6890
:1037F8001B68002B02DA0123FB731BE07B681B6844
:1038080000221A607B681B6819687B681B6B1A02A8
:103818007B689B6A1A437B68DB6A1A437B681B6870
:103828000A431A607B681B681A687B681B6842F049
:1038380001021A60FB7B002B4AD17B681B685A681F
:103848007B681B6822F01F025A607B681B685968F6
:103858007B685A6B7B681B680A435A607B681B68E5
:103868000D4A93421ED10B4B1B680133094A136062
:103878001DE000BFCCFC0020C4FC002080500240AA
:1038880000510240805102400052024080520240E2
:1038980000530240C8FC0020804002460040024617
:1038A800005002400D4B1B6801330C4A13607B68C3
:1038B8001B68184600F000FB024609497B6841F87E
:1038C80022307B6800221A647B68012283F83C203E
:1038D800FB7B18461037BD4680BD00BFC4FC0020E6
:1038E800CCFC002080B586B000AFF860B9607A6083
:1038F8000023FB75BB68002B02D07B68002B02D12C
:103908000123FB75FDE0FB681B68804A934213D1D5
:10391800BB6893F83430012B0ED1BB685B6E102B5B
:1039280007D0BB685B6E302B03D0BB685B6E402B47
:1039380002D10123FB7523E0BB685B6E502B02D1DB
:103948000123FB751CE0FB6893F83C30DBB2012BCC
:1039580002D00123FB7513E0FB681B689B68002BF2
:1039680002DA0123FB750BE0FB681B68674A934288
:1039780006D1FB681B689B6B002B01DA0123FB75E2
:10398800FB7D002B40F0BD80FB681B68604A9342BA
:1039980018D0FB681B685F4A934213D0FB681B680A
:1039A8005D4A93420ED0FB681B685C4A934209D07B
:1039B800FB681B685A4A934204D0FB681B68594A43
:1039C80093420AD1FB681B689B69002B05DABB6828
:1039D8009B683F2B01D90123FB75FB7D002B40F031
:1039E8009080BB681B7E012B07D1FB681B68DA6AD5
:1039F800FB681B6842F40062DA62FB681B68DA6ADB
:103A0800FB681B6842F40072DA62FB681B683F4A75
:103A1800934215D1BB6893F83430012B10D1FB6861
:103A28001B68DA6ABB6893F86030012B02D14FF447
:103A3800405101E04FF48051FB681B680A43DA6289
:103A4800FB681B6802229A60FB689B6B364A1A6601
:103A5800FB689B6B354A5A66FB689B6B344A9A66CF
:103A68007B681B7A012B04D1FB681B687033023317
:103A780002E0FB681B6870333B61FB689B6B1B6D46
:103A880003F08003002B23D0FB689B6B5B6F002B3C
:103A98001BD0FB689B6B5B6F1B687A6852689A60E7
:103AA800FB689B6B5B6F1B683A69DA60FB689B6B12
:103AB8005B6F1B687A6812681A61FB689B6B184613
:103AC800FEF7FEFC0346FB750DE00123FB750AE0DB
:103AD800FB68986B7B681A687B685B683969FEF7D6
:103AE80025F90346FB75FB7D002B06D0FB68FF22FA
:103AF80083F83C200123FB7503E0B968F86800F0FF
:103B08001FFAFB7D18461837BD4680BD8040024627
:103B18008050024000510240805102400052024051
:103B2800805202400053024095420008C1420008FA
:103B3800DD42000880B584B000AF78600023FB73D5
:103B48007B6893F83C30DBB2012B0AD17B681B6899
:103B58009B6803F00043B3F1004F19D00123FB73B6
:103B680016E07B6893F83C30DBB2022B02D00123CD
:103B7800FB730DE07B689B6B1846FEF737F903462D
:103B8800002B05D07B68FF2283F83C200123FB73C0
:103B9800FB7B002B4BD17B681B68274A93420CD1D7
:103BA8007B681B689B6B002B07DA7B681B689A6B2A
:103BB8007B681B6822F001029A637B681B689A681D
:103BC8007B681B6822F001029A607B681B681A4AAE
:103BD800934210D17B681B68DA6A7B681B6822F401
:103BE8006852DA627B681B681A6B7B681B6842F450
:103BF80068521A630FE07B681B68DA6A7B681B6887
:103C080022F42062DA627B681B681A6B7B681B6887
:103C180042F420621A637B681B689A687B681B6899
:103C280022F002029A607B68012283F83C20FB7B29
:103C380018461037BD4680BD8040024680B485B026
:103C480000AFF860B9607A6000BF1437BD465DF810
:103C5800047B704780B483B000AF786000BF0C3736
:103C6800BD465DF8047B704780B483B000AF7860D0
:103C7800396000BF0C37BD465DF8047B704780B5DE
:103C880088B000AF78607B681B68DB6ABB617B68C3
:103C98001B681B6B7B61BA697B6913403B613B699D
:103CA80003F00203002B11D07B681B681A6B7B683A
:103CB8001B6842F002021A637B681B6C43F0010226
:103CC8007B681A647868FDF7FDF8F1E03B6903F05A
:103CD8008003002B11D07B681B681A6B7B681B68FC
:103CE80042F080021A637B681B6C43F001027B6818
:103CF8001A647868FDF7E6F8DAE03B6903F0010337
:103D0800002B0FD07868FDF7B1F87B681B689B68BB
:103D180003F07003102B40F0CB807B68012283F8FE
:103D28003C20C5E03B6903F00403002B0BD07B6803
:103D38001B681A6B7B681B6842F004021A63786878
:103D4800FDF794F8B4E03B6903F40063002B11D04D
:103D58007B681B681A6B7B681B6842F400621A63F5
:103D68007B681B6C43F002027B681A647868FDF775
:103D7800A9F89DE03B6903F48063002B11D07B68B0
:103D88001B681A6B7B681B6842F480621A637B6845
:103D98001B6C43F004027B681A647868FDF792F89C
:103DA80086E03B6903F40073002B11D07B681B6825
:103DB8001A6B7B681B6842F400721A637B681B6C81
:103DC80043F010027B681A647868FDF77BF86FE0AF
:103DD8003B6903F48073002B11D07B681B681A6B56
:103DE8007B681B6842F480721A637B681B6C43F023
:103DF80008027B681A647868FDF764F858E03B6944
:103E080003F01003002B28D07B681B681B6B03F0A2
:103E18006003002B02D10023FB610BE07B681B6869
:103E28001B6B03F02003202B02D10223FB6101E06E
:103E38000123FB617B681B681A6B7B681B6842F077
:103E480010021A637B681B6C43F020027B681A64BB
:103E5800F9697868FFF708FF2AE03B6903F48053A3
:103E6800002B0BD07B681B681A6B7B681B6842F4BD
:103E780080521A637868FFF7EDFE19E03B6903F496
:103E88000053002B14D07B681B681B6CFB607B689D
:103E98001B685B6CBB607B681B681A6B7B681B6864
:103EA80042F400521A63BA68F9687868FFF7C6FEE8
:103EB80000BF2037BD4680BD80B485B000AF7860B4
:103EC8007B68194A934202D10023FB6024E07B6897
:103ED800164A934202D10123FB601DE07B68144A15
:103EE800934202D10223FB6016E07B68114A934299
:103EF80002D10323FB600FE07B680F4A934202D193
:103F08000423FB6008E07B680C4A934202D1052336
:103F1800FB6001E00623FB60FB6818461437BD46CA
:103F28005DF8047B704700BF80500240005102409A
:103F38008051024000520240805202400053024029
:103F480080B485B000AF786039603B685B6E002B49
:103F580003D03B685B6E102B10D17B681B68996897
:103F68003B685A6E3B689B6E1A433B68DB6E1B05C9
:103F78001A437B681B680A439A6015E07B681B68D4
:103F880099683B685A6E3B689B6E1A433B681B6F87
:103F98001A433B685B6F1A433B68DB6E1B051A4389
:103FA8007B681B680A439A607B681B687C4A93425B
:103FB80018D07B681B687B4A934213D07B681B68C8
:103FC800794A93420ED07B681B68784A934209D09D
:103FD8007B681B68764A934204D07B681B68754AE5
:103FE80093420CD13B685B6E502B08D17B681B68F1
:103FF80099683B689A6F7B681B680A439A603B68BC
:104008005B69002B08DA3B685B69103BBB60BB68E7
:1040180003F03F03FB6002E03B685B69FB603B68C1
:104028001A683B689B681A433B68DB68013B1B02C4
:1040380042EA0301FB681A057B681B680A43DA60D9
:104048007B681B683A6852685A627B681B68544AE6
:10405800934218D07B681B68524A934213D07B68FE
:104068001B68514A93420ED07B681B684F4A9342A3
:1040780009D07B681B684E4A934204D07B681B6852
:104088004C4A934204D13B681A697B681B685A639F
:104098007B681B6800221A613B681B7E012B09D1D3
:1040A8007B681B6819693B68DA697B681B680A4387
:1040B8001A6107E07B681B681A697B681B6842F015
:1040C80001021A613B6893F82030012B09D17B6803
:1040D8001B6819693B685A6A7B681B680A431A613E
:1040E80007E07B681B681A697B681B6842F08002DE
:1040F8001A617B681B682A4A934218D07B681B6840
:10410800284A934213D07B681B68274A93420ED0F3
:104118007B681B68254A934209D07B681B68244A40
:10412800934204D07B681B68224A934213D13B68B0
:1041380093F82830012B0AD13B68DB6A013B19014F
:104148003B681A6B7B681B680A435A6103E07B680B
:104158001B6800225A617B681B68174A93426FD11B
:104168003B6893F83430012B62D13B689B6BB3F505
:10417800405F23D03B6893F84030012B1ED13B6849
:104188009A6B3B68DB6B1A433B685B6C1A433B6872
:104198009B6C1A437B681B6842F080029A631CE0A0
:1041A80080500240005102408051024000520240BB
:1041B8008052024000530240804002463B689A6B9E
:1041C8003B68DB6B1A433B685B6C42EA03013B6864
:1041D8009A6C7B681B680A439A633B689B6BB3F5D0
:1041E800805F14D03B68DB6C1A043B681B6D1A4374
:1041F8003B685B6D1A433B689B6D1B0142EA0301F8
:104208003B68DA6D7B681B680A43DA6318E03B6831
:10421800DB6C1A043B681B6D1A433B685B6D42EA12
:1042280003013B68DA6D7B681B680A43DA6307E0C1
:104238007B681B6800229A637B681B680022DA632C
:104248007B68022283F83C207B681B680E4A9342F5
:104258000CD13B6893F83430012B07D17B681B687D
:104268009A6B7B681B6842F001029A637B681B6843
:104278009A687B681B6842F001029A6000BF143795
:10428800BD465DF8047B70478040024680B584B027
:1042980000AF78607B68DB6DFB607B681B6D812BF2
:1042A80003D0FB68012283F83C20F868FCF7DEFDA8
:1042B80000BF1037BD4680BD80B584B000AF7860C0
:1042C8007B68DB6DFB60F868FCF7E6FD00BF103724
:1042D800BD4680BD80B584B000AF78607B68DB6D7B
:1042E800FB60FB681B6C43F04002FB681A64F868CB
:1042F800FCF7E8FD00BF1037BD4680BD80B485B02F
:1043080000AF7860394BDB6B03F44033BB60BA68AD
:104318007B689A420BD17B68B3F5803F05D9334B54
:10432800DB68324A43F48023D360002357E07B687C
:10433800B3F5803F0AD92D4BDB6823F4E0227B6874
:1043480013432A4A43F48023D36007E0274BDB68F2
:1043580023F4E02225497B681343CB60244B1B6878
:10436800244AA2FB03239B09322202FB03F3214ABE
:10437800A2FB03239B090133FB6002E0FB68013BBE
:10438800FB601A4BDB6803F40043002B02D1FB6887
:10439800002BF3D1FB68002B1BD0154B1B68154A6B
:1043A800A2FB03239B09322202FB03F3114AA2FB5F
:1043B80003239B090133FB6002E0FB68013BFB60C0
:1043C8000A4BDB6B03F40043002B02D1FB68002B84
:1043D800F3D1FB68002B01D1032300E0002318462A
:1043E8001437BD465DF8047B704700BF00080246DD
:1043F80000000020D34D621080B400AF044BDB6B8B
:1044080003F440331846BD465DF8047B704700BF8F
:104418000008024680B485B000AF7860224B1B6864
:10442800224AA2FB03239B09322202FB03F31F4A01
:10443800A2FB03239B090133FB607B68002B13D18C
:104448001B4B9B681A4A23F00203936002E0FB6847
:10445800013BFB60164BDB6B03F00203022B16D10A
:10446800FB68002BF3D112E0114B9B68104A43F014
:104478000203936002E0FB68013BFB600C4BDB6BC3
:1044880003F00203002B02D1FB68002BF3D1FB6879
:10449800002B01D1032300E0002318461437BD4642
:1044A8005DF8047B704700BF00000020D34D621008
:1044B8000008024680B400AF054B1B69044A43F06C
:1044C8000053136100BFBD465DF8047B704700BF11
:1044D8000008024680B58EB000AF7860002387F8E8
:1044E80037307B68002B02D1012300F0C8BE994BFE
:1044F800DB6903F00C033B63964B9B6A03F00303F1
:10450800FB627B681B6803F01003002B00F06C81D2
:104518003B6B002B07D03B6B0C2B40F0DE80FB6A1B
:10452800012B40F0DA807B68DB69002B02D1012384
:1045380000F0A5BE7B685A6A864B9B6803F40003AB
:10454800002B04D0834B9B6803F0704305E0814B3C
:10455800D3F8F4301B0403F07043934255D23B6BFD
:10456800002B0AD17B685B6A184601F0D9F903462B
:10457800002B02D0012300F082BE764B9B68754A5F
:1045880043F400039360734B9B6823F070427B688D
:104598005B6A704913438B607B685B6AB3F1404F79
:1045A80009D36C4BDB6823F01F027B681B6A6949DF
:1045B8001343CB607EE07B685B6A002B0ADA654BAD
:1045C800DB6823F478727B681B6A5B0161491343DB
:1045D800CB606FE07B685B6AB3F1804F0AD35D4BB9
:1045E800DB6823F4F8427B681B6A9B025949134332
:1045F800CB605FE0574BDB6823F478227B681B6A4B
:10460800DB0354491343CB6054E0524B9B68514A37
:1046180043F4000393604F4B9B6823F070427B6820
:104628005B6A4C4913438B607B685B6AB3F1404F0C
:1046380009D3484BDB6823F01F027B681B6A454996
:104648001343CB6028E07B685B6A002B0ADA414B96
:10465800DB6823F478727B681B6A5B013D4913436E
:10466800CB6019E07B685B6AB3F1804F0AD3394BA2
:10467800DB6823F4F8427B681B6A9B0235491343C5
:10468800CB6009E0334BDB6823F478227B681B6A34
:10469800DB0330491343CB603B6B002B0AD17B68AB
:1046A8005B6A184601F03CF90346002B02D001234F
:1046B80000F0E5BD01F0DEF8274B1B681846FDF752
:1046C8000BF9034687F8273097F82730002B00F0BE
:1046D8008A8097F8273000F0D2BD7B68DB69002B11
:1046E80066D01C4B1B681B4A43F001031360FDF79F
:1046F8007DF9B86209E0FDF779F90246BB6AD31A79
:10470800022B02D9032300F0BABD124B1B6803F039
:104718000403002BEFD00F4B9B680E4A43F40003B1
:1047280093600C4B9B6823F070427B685B6A094975
:1047380013438B607B685B6AB3F1404F0ED3054B24
:10474800DB6823F01F027B681B6A02491343CB60B6
:104758004AE000BF000C0246040000207B685B6A48
:10476800002B0ADA984BDB6823F478727B681B6AA3
:104778005B0195491343CB6036E07B685B6AB3F114
:10478800804F0AD3904BDB6823F4F8427B681B6A9E
:104798009B028D491343CB6026E08B4BDB6823F4E7
:1047A80078227B681B6ADB0387491343CB601BE0D5
:1047B800854B1B68844A23F001031360FDF716F943
:1047C800B86209E0FDF712F90246BB6AD31A022B58
:1047D80002D9032300F053BD7B4B1B6803F004038D
:1047E800002BEFD100E000BF7B681B6803F00103DA
:1047F800002B00F08B803B6B082B05D03B6B0C2B00
:1048080009D1FB6A032B06D17B685B68002B7DD13D
:10481800012300F034BD7B685B68B3F5803F06D1A7
:10482800694B1B68684A43F48033136041E07B6836
:104838005B68B3F5A02F12D1634B1B68624A43F43F
:1048480080231360604B1B685F4A23F48013136056
:104858005D4B1B685C4A43F48033136029E07B6836
:104868005B68B3F5A81F12D1574B1B68564A43F42F
:1048780080231360544B1B68534A43F4801313601E
:10488800514B1B68504A43F48033136011E04E4B80
:104898001B684D4A23F4803313604B4B1B684A4A0C
:1048A80023F480231360484B1B68474A23F4801382
:1048B80013607B685B68002B14D0FDF797F8B8622B
:1048C80009E0FDF793F80246BB6AD31A642B02D9B4
:1048D800032300F0D4BC3C4B1B6803F40033002BCB
:1048E800EFD013E0FDF782F8B86209E0FDF77EF833
:1048F8000246BB6AD31A642B02D9032300F0BFBC5B
:10490800314B1B6803F40033002BEFD17B681B6825
:1049180003F00203002B5FD03B6B042B05D03B6BED
:104928000C2B14D1FB6A022B11D17B68DB68002B9E
:1049380002D1012300F0A3BC234B1B6923F4F81216
:104948007B681B691B04204913430B6144E07B68A7
:10495800DB68002B24D01C4B1B681B4A43F4807374
:104968001360FDF743F8B86209E0FDF73FF8024627
:10497800BB6AD31A022B02D9032300F080BC124B66
:104988001B6803F48063002BEFD00F4B1B6923F4E3
:10499800F8127B681B691B040B4913430B611BE06E
:1049A800094B1B68084A23F480731360FDF71EF84F
:1049B800B8620BE0FDF71AF80246BB6AD31A022B5D
:1049C80004D9032300F05BBC000C0246AF4B1B6804
:1049D80003F48063002BEDD17B681B6803F00803A8
:1049E800002B00F0C880002387F83630A74BD3F897
:1049F800943003F00403002B11D1A44BD3F8943066
:104A0800A24A43F00403C2F89430A04BD3F8943080
:104A180003F004037B617B69012387F836309C4BE4
:104A28009B6A03F00103002B19D1994B9B6A984AA2
:104A380043F001039362FCF7D9FFB86209E0FCF781
:104A4800D5FF0246BB6AD31A022B02D9032300F012
:104A580016BC8F4B9B6A03F00103002BEFD07B68D9
:104A68005B69002B5FD0894BD3F8F0303B627B68E1
:104A78009A693B6A03F080539A4237D03B6A03F045
:104A88000063002B06D03B6A03F08063002B01D142
:104A98000123F4E33B6A03F08063002B1BD07B4BBC
:104AA800D3F8F030794A23F0A053C2F8F030FCF77D
:104AB8009DFFB86208E0FCF799FF0246BB6AD31A6B
:104AC800052B01D90323DAE3704BD3F8F03003F058
:104AD8000063002BEFD16D4BD3F8F03023F08052F8
:104AE8007B689B6969491343C1F8F030674BD3F879
:104AF800F030664A43F08063C2F8F030FCF776FF86
:104B0800B86208E0FCF772FF0246BB6AD31A052BAD
:104B180001D90323B3E35D4BD3F8F03003F000630E
:104B2800002BEFD01BE0594BD3F8F030574A23F055
:104B3800A053C2F8F030FCF759FFB86208E0FCF760
:104B480055FF0246BB6AD31A052B01D9032396E306
:104B58004E4BD3F8F03003F00063002BEFD197F8F9
:104B68003630012B07D1494BD3F89430474A23F00C
:104B78000403C2F894307B681B6803F00403002B1D
:104B880000F01181002387F83530404BD3F894307A
:104B980003F00403002B11D13C4BD3F894303B4A6B
:104BA80043F00403C2F89430384BD3F8943003F040
:104BB80004033B613B69012387F83530344B9B6A1A
:104BC80003F00103002B18D1314B9B6A304A43F0A4
:104BD80001039362FCF70AFFB86208E0FCF706FFDE
:104BE8000246BB6AD31A022B01D9032347E3284B99
:104BF8009B6A03F00103002BF0D07B689B6803F0ED
:104C08000103002B1FD07B689B6803F00403002B73
:104C180010D01E4BD3F8F0301C4A43F00403C2F8FE
:104C2800F0301A4BD3F8F030184A43F00103C2F8B9
:104C3800F03018E0154BD3F8F030144A43F0010374
:104C4800C2F8F0300FE0114BD3F8F0300F4A23F0E0
:104C58000103C2F8F0300D4BD3F8F0300B4A23F0C3
:104C68000403C2F8F0307B689B68002B57D0FCF730
:104C7800BDFEB8620EE0FCF7B9FE0246BB6AD31A65
:104C880041F28832934205D90323F8E2000C024628
:104C9800000802469C4BD3F8F03003F00203002BC7
:104CA800E9D07B689B6803F08003002B1BD0964BF0
:104CB800D3F8F030944A43F08003C2F8F0300AE0A9
:104CC800FCF794FE0246BB6AD31A41F2883293423B
:104CD80001D90323D3E28C4BD3F8F03003F40063FB
:104CE800002BEDD053E0884BD3F8F030864A23F000
:104CF8008003C2F8F0300AE0FCF778FE0246BB6A8F
:104D0800D31A41F28832934201D90323B7E27E4B8A
:104D1800D3F8F03003F40063002BEDD137E0FCF753
:104D280065FEB8620AE0FCF761FE0246BB6AD31A68
:104D380041F28832934201D90323A0E2724BD3F89F
:104D4800F03003F00203002BEDD16F4BD3F8F030B5
:104D580003F08003002B1AD06B4BD3F8F0306A4A6B
:104D680023F08003C2F8F0300AE0FCF73FFE024669
:104D7800BB6AD31A41F28832934201D903237EE2F7
:104D8800614BD3F8F03003F40063002BEDD197F8B2
:104D98003530012B07D15C4BD3F894305A4A23F0B5
:104DA8000403C2F894307B681B6803F02003002BCF
:104DB80036D07B68DB6A002B19D0534B1B68524AEC
:104DC80043F480531360FCF711FEB86208E0FCF767
:104DD8000DFE0246BB6AD31A022B01D903234EE209
:104DE800494B1B6803F40053002BF0D018E0464BE6
:104DF8001B68454A23F480531360FCF7F7FDB8623B
:104E080008E0FCF7F3FD0246BB6AD31A022B01D96E
:104E1800032334E23C4B1B6803F40053002BF0D10E
:104E28007B681B6803F08003002B36D07B681B6B04
:104E3800002B19D0344B1B68334A43F4804313606A
:104E4800FCF7D4FDB86208E0FCF7D0FD0246BB6A67
:104E5800D31A022B01D9032311E22B4B1B6803F44D
:104E68000043002BF0D018E0274B1B68264A23F498
:104E780080431360FCF7BAFDB86208E0FCF7B6FDA2
:104E88000246BB6AD31A022B01D90323F7E11E4B52
:104E98001B6803F40043002BF0D17B681B6803F008
:104EA8004003002B7FD07B685B6B002B62D0164BD6
:104EB8009B68154A43F400039360134B9B6823F0E7
:104EC80070627B689B6A104913438B607B685B6ADE
:104ED800B3F1404F09D30C4BDB6823F01F027B680A
:104EE8001B6A09491343CB602AE07B685B6A002B85
:104EF8000CDA054BDB6823F478727B681B6A5B016C
:104F080001491343CB601BE0000C02467B685B6AD7
:104F1800B3F1804F0AD3A14BDB6823F4F8427B68D6
:104F28001B6A9B029D491343CB6009E09B4BDB68DE
:104F380023F478227B681B6ADB0398491343CB6010
:104F4800964B1B68954A43F010031360FCF74EFD1F
:104F5800B86208E0FCF74AFD0246BB6AD31A022B86
:104F680001D903238BE18D4B1B6803F02003002B31
:104F7800F0D018E0894B1B68884A23F010031360AF
:104F8800FCF734FDB86208E0FCF730FD0246BB6A66
:104F9800D31A022B01D9032371E1804B1B6803F05C
:104FA8002003002BF0D17B689B6B002B00F06681FF
:104FB800002387F83430794BDB6903F00C030C2BA2
:104FC80000F0F2807B689B6B022B40F0C580734B2E
:104FD8001B68724A23F080731360FCF707FDB86200
:104FE80008E0FCF703FD0246BB6AD31A022B01D97D
:104FF800032344E1694B1B6803F00073002BF0D1D5
:10500800664BD3F8943003F00403002B11D1634BA3
:10501800D3F89430614A43F00403C2F894305F4BEC
:10502800D3F8943003F00403FB60FB68012387F88E
:1050380034305B4BDB6803F48023B3F5802F02D157
:10504800012387F83730564BDB68554A23F4802311
:10505800D360524B9B6A23F47F4323F003037A689F
:10506800D16B7A68126C013A120211437A68526C59
:105078000A434A4913438B62484B5A6B494B1340C6
:105088007A68926C013AC2F308017A68D26C013AE4
:10509800520292B211437A68126D013A120402F474
:1050A800FE0211437A68526D013A120602F0FE427E
:1050B8000A433A4913434B63384B9B6A374A23F0F8
:1050C800100393627B68DB6D344ADB009363334BD8
:1050D8009B6A324A43F010039362304B9B6A23F079
:1050E8000C027B689B6D2D4913438B6297F8373010
:1050F800012B05D12A4BDB68294A43F48023D3606E
:1051080097F83430012B07D1244BD3F89430234A35
:1051180023F00403C2F89430204B1B681F4A43F065
:1051280080731360FCF762FCB86208E0FCF75EFC71
:105138000246BB6AD31A022B01D903239FE0174BFF
:105148001B6803F00073002BF0D0144B9B6A134AC2
:1051580043F48023936291E0104B1B680F4A23F0BD
:1051680080731360FCF742FCB86208E0FCF73EFC71
:105178000246BB6AD31A022B01D903237FE0074BEF
:105188001B6803F00073002BF0D1044B9B6A034AA1
:1051980023F4E02323F0030393626FE0000C02463C
:1051A8000008024600008080374B9B6AFB61364B43
:1051B8005B6BBB617B689B6B012B39D0FB6903F090
:1051C80003027B68DB6B9A4232D1FB691B0A03F04E
:1051D8000F027B681B6C013B9A4229D1FB6903F4DF
:1051E80070427B685B6C9A4222D1BB69C3F30802A8
:1051F8007B689B6C013B9A421AD1BB695B0A03F03E
:105208007F027B68DB6C013B9A4211D1BB691B0CA6
:1052180003F07F027B681B6D013B9A4208D1BB6992
:105228001B0E03F07F027B685B6D013B9A4201D045
:10523800012324E0144B9B6BDB08C3F30C027B684F
:10524800DB6D9A421AD0104B9B6A0F4A23F0100369
:105258009362FCF7CBFBB86200BFFCF7C7FB0246C2
:10526800BB6A9342F9D07B68DB6D074ADB00936326
:10527800054B9B6A044A43F01003936200231846C7
:105288003837BD4680BD00BF000C024680B586B0E9
:1052980000AF786039607B68002B01D10123D9E128
:1052A8009B4B1B6803F00F033A689A4210D9984B3E
:1052B8001B6823F00F0296493B6813430B60944B1D
:1052C8001B6803F00F033A689A4201D00123C1E139
:1052D8007B681B6803F01003002B10D07B685A69A9
:1052E8008C4B5B6A03F070039A4208D9894B5B6A5E
:1052F80023F070027B685B69864913434B627B68C5
:105308001B6803F00803002B12D07B681A69814BD5
:105318001B6A1B0903F070039A4209D97D4B1B6A6B
:1053280023F4E0627B681B691B017A4913430B6213
:105338007B681B6803F00403002B10D07B68DA68D5
:10534800744B1B6A03F070039A4208D9714B1B6AAD
:1053580023F070027B68DB686E4913430B627B683D
:105368001B6803F00203002B10D07B689A68694B16
:105378001B6A03F00F039A4208D9664B1B6A23F095
:105388000F027B689B68634913430B627B681B6849
:1053980003F00103002B00F0D2800023FB757B682B
:1053A8005B68032B43D15B4BD3F8943003F00403C1
:1053B800002B10D1574BD3F89430564A43F00403CE
:1053C800C2F89430534BD3F8943003F00403BB6015
:1053D800BB680123FB75FCF709FB38614E4BDB68A2
:1053E80003F48023002B0FD008E0FCF7FFFA0246F5
:1053F8003B69D31A022B01D903232BE1464BDB6807
:1054080003F48043002BF0D0FB7D012B07D1414BE7
:10541800D3F894303F4A23F00403C2F894303D4B4C
:105428001B6803F00073002B21D1012312E17B6874
:105438005B68022B07D1374B1B6803F40033002B42
:1054480015D1012306E17B685B68002B07D1314B3E
:105458001B6803F00403002B09D10123FAE02D4B4C
:105468001B6803F48063002B01D10123F2E0294B70
:10547800DB6923F003027B685B6826491343CB6131
:10548800FCF7B4FA38617B685B68032B12D10AE039
:10549800FCF7ACFA02463B69D31A41F288329342D0
:1054A80001D90323D6E01B4BDB6903F00C030C2B5B
:1054B800EED144E07B685B68022B12D10AE0FCF76E
:1054C80095FA02463B69D31A41F28832934201D9D0
:1054D8000323BFE00F4BDB6903F00C03082BEED16D
:1054E8002DE07B685B68002B23D10AE0FCF77EFA8D
:1054F80002463B69D31A41F28832934201D9032309
:10550800A8E0044BDB6903F00C03002BEED116E096
:1055180000200240000C024600080246FCF766FA2A
:1055280002463B69D31A41F28832934201D90323D8
:1055380090E04A4BDB6903F00C03042BEED17B6847
:105548001B6803F00203002B10D07B689A68434B5A
:105558001B6A03F00F039A4208D2404B1B6A23F0E0
:105568000F027B689B683D4913430B623C4B1B68E9
:1055780003F00F033A689A4210D2394B1B6823F0A4
:105588000F0237493B6813430B60354B1B6803F028
:105598000F033A689A4201D001235BE07B681B68DD
:1055A80003F00403002B10D07B68DA682B4B1B6ACE
:1055B80003F070039A4208D2284B1B6A23F070024A
:1055C8007B68DB68254913430B627B681B6803F023
:1055D8000803002B12D07B681A69204B1B6A1B0931
:1055E80003F070039A4209D21C4B1B6A23F4E06251
:1055F8007B681B691B01194913430B627B681B6895
:1056080003F01003002B10D07B685A69134B5B6AB8
:1056180003F070039A4208D2104B5B6A23F07002C1
:105628007B685B690D4913434B6200F021F8024621
:105638000A4B1B6A03F00F030A49CB5C22FA03F3F7
:10564800094A1360094B1B681846FCF745F90346DD
:10565800FB73FB7B18461837BD4680BD000C02461D
:1056680000200240F89E00080000002004000020EE
:1056780080B48BB000AF00237B6200233B62784B81
:10568800DB6903F00C03BB61754B9B6A03F00303F2
:105698007B61BB69002B05D0BB690C2B21D17B69D1
:1056A800012B1ED16E4B9B6803F40003002B07D11E
:1056B8006B4BD3F8F4301B0B03F00F037B6205E050
:1056C800674B9B681B0F03F00F037B62654A7B6A7D
:1056D80052F823307B62BB69002B10D17B6A3B6296
:1056E8000DE05F4BDB6903F00C03042B02D15E4B2A
:1056F8003B6204E0BB69082B01D15B4B3B62BB6991
:105708000C2B40F0A580564B9B6A03F003033B61CA
:10571800534B9B6A1B0A03F00F030133FB60504B8A
:105728009B6A1B0903F00103BB604D4B9B6BDB08B5
:10573800C3F30C03BA6802FB03F307EE903AF8EEE2
:10574800677AC7ED017A3B69022B03D03B69032BCB
:1057580022D043E0FB6807EE903AF8EE677ADFED77
:10576800436A86EEA77A3E4B5B6BC3F3080307EEEA
:10577800903AF8EE676A97ED016ADFED3D5AC6EE9A
:10578800257A76EEA77AF7EE006A77EEA67A67EEC4
:10579800277AC7ED077A46E0FB6807EE903AF8EEFD
:1057A800677ADFED326A86EEA77A2D4B5B6BC3F31F
:1057B800080307EE903AF8EE676A97ED016ADFEDA5
:1057C8002C5AC6EE257A76EEA77AF7EE006A77EEBF
:1057D800A67A67EE277AC7ED077A24E07B6A07EE98
:1057E800903AF8EE676AFB6807EE903AF8EE677A47
:1057F80086EEA77A1A4B5B6BC3F3080307EE903A61
:10580800F8EE676A97ED016ADFED195AC6EE257A58
:1058180076EEA77AF7EE006A77EEA67A67EE277A31
:10582800C7ED077A00BF0E4B5B6B1B0E03F07F03BF
:1058380001333B603B6807EE903AB8EE677AD7EDE4
:10584800076AC6EE877AFCEEE77A17EE903A3B6273
:105858003B6A18462C37BD465DF8047B704700BF8D
:10586800000C0246109F00080024F4000024744B2A
:105878000000004680B500AFFFF7FAFE0246074B6E
:105888001B6A03F00F030649CB5C22FA03F3054AAF
:105898001360044B1B68184680BD00BF000C02460D
:1058A800F89E00080000002080B500AFFFF7E2FF77
:1058B8000246054B1B6A1B0903F007030349CB5C2F
:1058C80022FA03F3184680BD000C0246089F000820
:1058D80080B500AFFFF7CEFF0246054B1B6A1B0AD7
:1058E80003F007030349CB5C22FA03F3184680BD93
:1058F800000C0246089F000880B500AFFFF7BAFF0A
:105908000246054B5B6A1B0903F007030349CB5C9E
:1059180022FA03F3184680BD000C0246089F0008CF
:1059280080B586B000AF78603E4BD3F8943003F072
:105938000403002B03D0FEF75FFD786119E0394BB3
:10594800D3F89430374A43F00403C2F89430354B07
:10595800D3F8943003F00403FB60FB68FEF74CFDBA
:105968007861304BD3F894302E4A23F00403C2F800
:1059780094307B69B3F5403F03D07B69B3F5003FB2
:1059880009D17B68B3F1805F02D201233B6133E028
:1059980000233B6130E07B68B3F1805F08D27B690C
:1059A800B3F5803F02D103233B6125E0012335E0B5
:1059B8007B68B3F1005F0FD97B69002B09D17B6845
:1059C800B3F1405F02D900233B6115E001233B613D
:1059D80012E000233B610FE07B68B3F1805F09D1DF
:1059E8007B69B3F5803F02D101233B6104E00223C8
:1059F8003B6101E001233B610B4B1B6823F00F0265
:105A080009493B6913430B60074B1B6803F00F03FD
:105A18003A699A4201D0012300E00023184618375A
:105A2800BD4680BD000C0246002002402DE9B04F63
:105A3800BAB000AFC7F8D400002387F8E3300023DA
:105A480087F8E230D7F8D430D3E9002302F0010414
:105A5800002554EA05030BD0CB4BD3F8E03023F0F4
:105A68000301D7F8D4301B6DC74A0B43C2F8E030A6
:105A7800D7F8D430D3E9002302F002084FF0000928
:105A880058EA09030BD0C04BD3F8E03023F00C01DF
:105A9800D7F8D4305B6DBC4A0B43C2F8E030D7F876
:105AA800D430D3E9002302F0040A4FF0000B5AEA7D
:105AB8000B030BD0B44BD3F8E03023F03001D7F808
:105AC800D4309B6DB04A0B43C2F8E030D7F8D430DD
